:020000040800F2
:10000000002000201917000805080008070800084C
:1000100000000000000000000000000000000000E0
:1000200000000000000000000000000009080008B7
:1000300000000000000000000B0800080D08000888
:100040009917000800000000991700089917000888
:100050009917000899170008991700081508000853
:100060000000000099170008991700089917000868
:100070009917000899170008000000009917000858
:100080000000000000000000000000000000000070
:1000900099170008000000000000000099170008F0
:1000A0000000000099170008000000000000000098
:1000B00099170008991700080000000000000000D0
:1000C00010B5064C2378002B07D1054B002B02D02E
:1000D000044800E000BF0123237010BD3C04002051
:1000E000000000008C190008044B10B5002B03D051
:1000F0000349044800E000BF10BDC04600000000F6
:10010000400400208C190008002243088B4274D35D
:1001100003098B425FD3030A8B4244D3030B8B4208
:1001200028D3030C8B420DD3FF22090212BA030C11
:100130008B4202D31212090265D0030B8B4219D3F2
:1001400000E0090AC30B8B4201D3CB03C01A524112
:10015000830B8B4201D38B03C01A5241430B8B425A
:1001600001D34B03C01A5241030B8B4201D30B0343
:10017000C01A5241C30A8B4201D3CB02C01A52416A
:10018000830A8B4201D38B02C01A5241430A8B422D
:1001900001D34B02C01A5241030A8B4201D30B0216
:1001A000C01A5241CDD2C3098B4201D3CB01C01A30
:1001B000524183098B4201D38B01C01A524143093A
:1001C0008B4201D34B01C01A524103098B4201D328
:1001D0000B01C01A5241C3088B4201D3CB00C01A95
:1001E000524183088B4201D38B00C01A524143080D
:1001F0008B4201D34B00C01A5241411A00D2014632
:10020000524110467047FFE701B5002000F006F8A4
:1002100002BDC0460029F7D076E770477047C04658
:10022000002B11D1002A0FD1002900D1002802D0C3
:100230000021C943080007B4024802A140180290F7
:1002400003BDC046D9FFFFFF03B4684601B502985D
:1002500000F034F8019B9E4602B00CBC7047C046CB
:10026000F0B5CE46474680B5070099463B0C9C4604
:1002700013041B0C1D000E0061460004140C000C3E
:1002800045434B4360436143C0182C0C20188C46F7
:10029000834203D980235B029846C444494679438C
:1002A0007243030C63442D042D0CC918000440193B
:1002B0008918C0BCB946B046F0BDC046F0B5574637
:1002C0004E464546DE46E0B504000D00924699468E
:1002D00083B08B4230D82DD04946504600F0D8F834
:1002E00029000600200000F0D3F8331A9846203B7E
:1002F0009B4633D45A465346934042461F005346CA
:1003000093401E00AF423AD8AF4200D178E05B463E
:10031000A41BBD41002B00DA75E0002200230092EF
:10032000019301235A46934001930123424693408F
:10033000009328E08242CFD900220023009201934B
:100340000C9B002B01D01C605D600098019903B0EC
:10035000F0BCBB46B246A946A046F0BD42462023AB
:100360009B1A5246DA40414613004A468A4017001B
:1003700042461F43534693401E00AF42C4D9002259
:100380000023009201934346002BD9D0FB0772084B
:100390001A4346467B080EE0AB4201D1A2420CD87C
:1003A000A41A9D41012024196D410021013E241809
:1003B0004D41002E06D0AB42EED9013E24196D41CD
:1003C000002EF8D1009801995B4600196941002B75
:1003D00024DB2B005A464446D3402A00E2401C004E
:1003E0005B461500002B2ADB26009E4033002600CA
:1003F0004746BE403200801A9941009001919FE724
:10040000A342BCD883E74246202300219B1A002246
:10041000009101920122DA40019286E742462023B0
:100420009B1A2A0046469A402300F3404446134351
:100430002A00E2401C005B461500002BD4DA42463D
:100440002F002023260097409B1ADE403B003343B9
:10045000CDE7C0461C2101231B04984201D3000CA8
:1004600010391B0A984201D3000A08391B09984227
:1004700001D30009043902A2105C40187047C0463D
:10048000040302020101010100000000000000005D
:1004900010B5002903D1FFF7DDFF203002E008008E
:1004A000FFF7D8FF10BDC046F0B589B01422002177
:1004B00003A801F095F9324BD96A04221143D9629D
:1004C000D96A0A400092009ADA6A01263243DA6257
:1004D000DA6A32400192019AD96A02221143D96242
:1004E000DB6A1A400292029BA025ED050022FF2143
:1004F000280000F02BFDC0231B0203930327049761
:100500000024059403A91F4800F058FCFF2303931F
:10051000EE3B04930594069403A9280000F04EFCDA
:10052000F92303930497059403A9174800F046FCA8
:10053000E7231B0203930497059403A9280000F006
:100540003DFC80231B0103938427BF03049705947C
:1005500003A9280000F032FC80235B010393049779
:10056000059603A9280000F029FC0022002107209D
:1005700000F0E4FA072000F011FB09B0F0BDC0461E
:10058000001002400008005000040050A023DB05CA
:10059000FF2212049A61704770B50400084D0023D1
:1005A0002B7000F0BFFB074B19788900064B9C4667
:1005B00061442200022000F0D3FB01232B7070BDA8
:1005C00000000020590400200400080870470000C3
:1005D000A023DB05014A9A6172B6FEE7F4000B0026
:1005E00000B583B008220021684601F0F9F81B48E5
:1005F0001B4B03600023C363C02212064260082223
:1006000082608363073A0261C36020214354013151
:1006100042548362C221FF3141629639FF3943540B
:100620002839416180214901016383614263C261CC
:1006300000F04AF900280CD10A4B009380235B019B
:1006400001936946054800F035FA002803D103B04C
:1006500000BDFFF7BDFFFFF7BBFFC0465C040020F5
:10066000002401400002002400B593B03422002190
:1006700005A801F0B5F814220021684601F0B0F891
:1006800014490B68144A1A4080231B0113430B6062
:10069000102305930F3B0B9300230C93A02212020F
:1006A0000D920E9305A800F0BDFC00280ED10F237B
:1006B000009300230193029303930493002168465F
:1006C00000F03EFF002803D113B000BDFFF780FF0C
:1006D000FFF77EFF00700040FFE7FFFF10B500F05E
:1006E000CDF8FFF7C1FFFFF7DFFEFFF779FFFFF758
:1006F0004DFF13E01F4A10801F4A12881F490A80CD
:1007000000041018FFF748FF1D4A13780133DBB2CD
:100710001370042B02D9130000221A70194B1B7896
:10072000012BFBD000F0CAF8174B1B68C01A8023BE
:10073000DB009842F2D9134B01221A70134B1A783E
:1007400080231341FF229A431B04FF2109040B401D
:100750001343A022D20593610D4B1888054A1288D5
:100760009042C7D8044A1188044A12889142CBD9D2
:10077000C0E7C046BC040020B8040020BA04002032
:100780005804002001000020C0040020BE04002006
:10079000C4040020054B5A6B01210A435A63996B2C
:1007A000802252050A439A637047C04600100240F7
:1007B00010B586B004001422002101A801F010F841
:1007C00022680D4B9A4201D006B010BD0B4B596BFD
:1007D000802292000A435A63D96A02221143D962E5
:1007E000DB6A13400093009B01920323029301A94B
:1007F000034800F0E3FAE7E700240140001002405C
:1008000000040050FEE7FEE77047704710B500F0A7
:1008100049F810BD10B58020000100F09DFB80203C
:10082000400100F099FB10BD7047000010B50400B6
:100830000F4B1978FA208000FFF766FC01000D4B82
:100840001868FFF761FC00F0B5F900280DD1032C02
:1008500001D901200AE0013000222100404200F0CD
:100860006DF9054B1C60002000E0012010BDC04662
:1008700008000020040000200C00002010B5084AE9
:10088000136840210B4313600320FFF7CFFF041EC2
:1008900002D00124200010BDFFF77CFFFAE7C0461C
:1008A00000200240034A1168034B1B785B18136059
:1008B0007047C046C804002008000020014B18689B
:1008C0007047C046C804002070B5041E00D1E2E0A5
:1008D000436D002B30D0636DDB0633D42268916802
:1008E000042005000D4008422CD1616D6B4B19406E
:1008F0000633FF3319436165916801330B40012BC7
:1009000029D06368C02109068B4228D08021C905FF
:100910008B4224D0802109068B4220D013699B0092
:100920009B0813615E4B1A685E490A401A601A6898
:1009300061680A431A601BE0836550228354FFF705
:1009400037FFC8E7636D102213436365502300220D
:10095000E254012070BD1368DB0713D4D1E713699B
:100960009B009B0813612268136961680B43136144
:100970002268D36818218B43D3602268D368A168AA
:100980000B43D360464A136847490B401360136812
:10099000616B49060B43136023689A68D20004D444
:1009A0009968802252050A439A602368DA683F49B1
:1009B0000A40DA602068C268E368216902292DD004
:1009C0002B432021615C49030B432C21615C4900CE
:1009D0000B43216B0B43A16989030B43E169C903F5
:1009E0000B431343C360636AC222FF32934205D0B4
:1009F0002168CA68A06A03431343CB602123E35CE8
:100A0000012B0DD0E36B012B1ED023681A69D2078E
:100A10002DD51A6901218A431A6128E00425CFE700
:100A20001F33E35C002B06D12268D16880235B0270
:100A30000B43D360E6E7636D202213436365A36D28
:100A40001F3A1343A365DDE72268136918490B4079
:100A5000136121680A69236C606C0343A06C034333
:100A600013430B612268136901210B431361226850
:100A7000536907218B43536122685369A16B0B4370
:100A800053610023A365636D03229343023A13432A
:100A9000636500205EE701205CE7C046FDFEFFFFC6
:100AA00008270140FFFFC3FFFFFFFFFD1902FEFF04
:100AB00003FCFFFF10B55023C35C012B36D050233D
:100AC0000122C25403689A68520717D4184A4C6826
:100AD00094421CD09C6A0A685203520B22439A62C9
:100AE0000B689B0305D5134A11688023DB030B4376
:100AF000136050230022C254002010BD436D2022F9
:100B00001343436550230022C2540120F5E79C6A39
:100B10000A685203520B94439C620B689B03E8D50E
:100B2000044A136804490B401360E2E70220E4E73B
:100B30000110000008270140FFFFBFFF70B500282B
:100B400011DB8308134EC0339B009D5903242040C2
:100B5000C000FF2214008440A54389010A4082405E
:100B60002A439A5170BD0F230340083B9B0806336C
:100B70009B00094A944663445C6803221040C0000D
:100B8000FC3215008540AC4389010A408240224373
:100B90005A60E7E700E100E000ED00E0002805DB37
:100BA0001F2318401E3B8340014A13607047C04614
:100BB00000E100E0013880235B0498420FD2094A2B
:100BC00050600948036A1B021B0AC02109060B4337
:100BD00003620023936007331360002070470120F5
:100BE000FCE7C04610E000E000ED00E02B4B996907
:100BF000802252000B001340114206D0284A53694C
:100C000002210B43536180235B00244A92699205C1
:100C100007D523494A69012002434A618022920094
:100C200013431E4A9269520507D51D494A69082097
:100C300002434A618022D2001343184A9269120586
:100C400007D517494A69042002434A6180221201EC
:100C50001343124A9269920407D511494A69102038
:100C600002434A618022920113430C4A9269920323
:100C700005D50B48426920210A4342610B43074ACC
:100C80009269D20307D506494A69402002434A6166
:100C9000802252021343014A9361704700200240B0
:100CA000CC04002070B50400FFF708FE05001C4BC3
:100CB0009B69DB070AD5631CF9D0002C04D0FFF731
:100CC000FDFD401BA042F2D9032027E0144B9B6995
:100CD0009B0702D5124B02229A61114B9B69DB05DF
:100CE00019D40F4B9B699B0515D40D4B9B695B0574
:100CF00011D40B4B9B691B050DD4094B9B699B04BD
:100D000009D4074B9B699B0305D4054B9B69DB0307
:100D100001D4002002E0FFF769FF012070BDC0464A
:100D2000002002400B4B5B68DB070ED5EFF310820F
:100D300072B6084B0849D9600849D96082F3108817
:100D40005B68DB0703D4002000E00020704701202F
:100D5000FCE7C04600200240EFCDAB89050403024A
:100D600070B506000D001400124B1B7C012B1FD028
:100D7000104B01221A741048FFF794FF00280CD181
:100D80000C4B00225A61022E06D0012E09D0002EF3
:100D90000AD1E4B22C7000E02C60064B00221A74D9
:100DA00070BDA4B22C80F8E70348FFF77BFFF4E79F
:100DB0000220F5E7CC04002050C30000F0B500236A
:100DC00057E084685F000326BE40B4432600CC6829
:100DD000BC4034438460446894434A681609012245
:100DE00032409A402243426053E0DC080834A400B9
:100DF000265805321A4092000F279740BE430F69CC
:100E000097403A003243225057E0052600E0002682
:100E1000A64034003C4302329200454E9451454A6C
:100E20001468EA432600AE434F68FF0301D52C4304
:100E30002600404C26606468260016404F68BF03B9
:100E400001D52C4326003B4C6660A4682600164062
:100E50004F68FF0201D52C432600364CA660E4689B
:100E600022404E68B60201D52A002243314CE2608E
:100E700001330C682200DA4058D001229A40250044
:100E800015401442F4D003244E683440013C012C38
:100E900097D903224C682240032A09D0C2685E0019
:100EA0000324B440A24314008A68B2402243C260C3
:100EB00003224C682240022A97D004685E00032275
:100EC0001700B740BC434F683A40B240224302602B
:100ED000C02292024C681442CAD0174C626B0126A1
:100EE000324362639A08941CA400114EA75903264A
:100EF0001E40B4000F26A640B743A026F605B04218
:100F000085D00E4EB0420BD00D4EB0420AD00D4EE1
:100F1000B04209D00C4EB04200D176E7062677E702
:100F2000012675E7022673E7032671E7F0BDC04688
:100F30000000014000040140001002400004005085
:100F400000080050000C0050001C0050002A01D086
:100F5000816170478162FCE710B5054B5B691842FF
:100F600000D110BD024B5861FFF730FBF9E7C046D6
:100F70000004014010B5264BDA680C231340082BFF
:100F800042D00C2B11D0042B09D0214B5A68520BA4
:100F900007231340013380200002984010BD1C4BF2
:100FA0001B68DB0632D51B48F8E7910C0F230B407A
:100FB0001949C85C920D03231A40541C144BDB687A
:100FC000DB0309D5154A00230021FFF749F9220068
:100FD0000023FFF725F9E1E70D4B1B68DB0609D578
:100FE0000C4A00230021FFF73BF922000023FFF702
:100FF00017F9D3E70A4A00230021FFF731F922004D
:101000000023FFF70DF9C9E70448C7E70448C5E71F
:101010000010024000093D00B419000800127A00D7
:101020000024F400F0B583B0041E00D165E2C54B86
:10103000DA680C251540DE6880235B021E400368D9
:10104000DB0736D5082D2CD00C2D28D063688022E4
:101050005202934255D0A022D202934258D0B94BAB
:101060001A68B9490A401A601A68802149020A4080
:101070000192019A1A68B5490A401A606368002B08
:1010800052D0FFF71BFC0700AE4B1B689B0310D42C
:10109000FFF714FCC01B6428F6D903202EE2002EB3
:1010A000D4D0A84B1B689B0303D56368002B00D1E9
:1010B00026E223689B076DD5E3689A0605D5A1480B
:1010C000026820210A4302608B43042D3CD00C2D82
:1010D00038D0002B00D1B0E09A490A680920824339
:1010E00013430B60FFF7EAFB0600964B1B685B0798
:1010F00000D599E0FFF7E2FB801B0228F5D9032019
:10110000FCE1904A116880235B020B431360B5E752
:101110008C4B19688022D2020A431A601968802217
:1011200052020A431A60A9E7FFF7C8FB0700854B84
:101130001B689B03BDD5FFF7C1FBC01B6428F6D914
:101140000320DBE1002EC4D17E4A1268520702D58B
:10115000002B00D1D6E17B4E72687D490A4021699F
:1011600009020A437260326809218A4313433360DB
:10117000FFF700FFF26812090F231340754AD35C92
:10118000D840754B1860754B1868FFF74FFB002867
:1011900000D0B3E12368DB062DD5002D60D1694B6B
:1011A0001B689B0503D5A369002B00D1ACE1654A00
:1011B00053686B490B40216A0B43536053681B0211
:1011C0001B0AE16909060B435360236A590B01317D
:1011D00080231B028B40D16809090F220A405D4918
:1011E0008A5CD3405C4A13605C4B1868FFF71EFBB7
:1011F000002800D082E123681B077DD56369002B9E
:1012000067D0504A136D01210B431365FFF756FB5E
:1012100006004C4B1B6D9B076ED4FFF74FFB801BEA
:101220000228F6D9032069E146494B68484A134031
:101230002269120213434B60ACE7424A1368012152
:101240008B431360FFF73AFB06003E4B1B685B07BE
:10125000A0D5FFF733FB801B0228F6D903204DE110
:10126000A369002B22D0374A116880235B000B430F
:101270001360FFF723FB0600324B1B689B0506D467
:10128000FFF71CFB801B0228F6D9032036E12D4A0C
:10129000536833490B40216A0B43536053681B0268
:1012A0001B0AE16909060B435360A4E7254A13684A
:1012B0002C490B401360FFF701FB0600214B1B6814
:1012C0009B0598D5FFF7FAFA801B0228F6D9032070
:1012D00014E11C4A136D01218B431365FFF7EEFAED
:1012E0000600184B1B6D9B0706D5FFF7E7FA801B1E
:1012F0000228F6D9032001E123685B0700D48EE0C1
:10130000104B9B6BDB001BD40E4A916B80235B055B
:101310000B4393630126144B1B68DB0528D5A36898
:1013200080225200934237D0002B4DD1054B1A6DCD
:101330000C490A401A651A6D0C490A401A6531E0D9
:101340000026E8E700100240FFFFFEFFFFFFFBFF63
:10135000FFE0FFFFA4190008040000200C0000209B
:10136000FF1FFFFFFFFEFFFF00700040FFFBFFFFBE
:101370006B4A116880235B000B431360FFF79EFAF2
:101380000700674B1B68DB05C9D4FFF797FAC01B42
:101390006428F6D90320B1E0624A116D80235B0016
:1013A0000B431365A368002B28D0FFF787FA0700CB
:1013B0005C4B1B6D9B0530D4FFF780FAC01B5A4B6A
:1013C0009842F5D9032099E0A022D200934209D097
:1013D000544B1A6D55490A401A651A6D54490A4012
:1013E0001A65DFE74F4B196D013AFF3A0A431A6558
:1013F000196D802252000A431A65D3E7FFF75EFA9F
:101400000700484B1B6D9B0507D5FFF757FAC01B1C
:10141000454B9842F5D9032070E0012E1AD0636A3B
:10142000002B00D172E00C2D4FD0022B18D03D4A7A
:10143000136840490B401360FFF740FA0400394B32
:101440001B689B013FD5FFF739FA001B0228F6D92C
:10145000032053E0334A936B37490B409363DEE735
:10146000304A136833490B401360FFF727FA050031
:101470002C4B1B689B0106D5FFF720FA401B022866
:10148000F6D903203AE02749CB682C4A1340A26AD8
:10149000E06A0243206B02431343CB600A68802357
:1014A0005B0413430B60FFF709FA04001D4B1B6834
:1014B0009B0106D4FFF702FA001B0228F6D903208D
:1014C0001CE000201AE0002018E0012B20D0154B72
:1014D000DA6880235B021340A16A8B421AD1F023A1
:1014E0009B031340E16A8B4216D1C0231B041A40B0
:1014F000236B9A4212D1002000E0012003B0F0BD1E
:101500000120FBE70120F9E70120F7E70020F5E7DC
:101510000120F3E70120F1E70120EFE70120EDE7EB
:10152000007000400010024088130000FFFEFFFF23
:10153000FFFBFFFFFFFFFFFEFFFFFFEFFFFF02FFCD
:1015400070B505000C00002800D1D1E06A4B1A6884
:10155000012313408B4219D32B689B0706D5674A9A
:10156000D368F0218B43A9680B43D3602B68DB075A
:101570007BD56B68022B20D0032B40D0012B44D0AD
:101580005E4A126892051DD4012099E05A4A1368F8
:1015900001218B4323431360FFF790F90600564B5C
:1015A0001A6801231340A342D6D0FFF787F9801BA6
:1015B000534A9042F3D9032082E0504A12689203C2
:1015C00000D497E04D49CA68032082431343CB609F
:1015D000FFF774F906006B68022B1CD0032B28D090
:1015E000012B34D0454BDB680C221A423DD0FFF76B
:1015F00065F9801B424B9842F4D9032060E03F4AD2
:1016000012689201DED401205AE03C4A1268520767
:10161000D8D4012054E0394BDA680C231340082B4E
:1016200023D0FFF74BF9801B354A9042F3D90320B2
:1016300046E0324BDA680C2313400C2B15D0FFF731
:101640003DF9801B2E4B9842F3D9032038E02B4BF9
:10165000DA680C231340042B07D0FFF72FF9801B07
:10166000274B9842F3D903202AE0234B1A68012321
:101670001340A34225D82B685B0706D51F4AD368C1
:1016800020490B40E9680B43D3602B681B0707D543
:101690001A49CB681C4A13402A69D2001343CB6015
:1016A000FFF768FC154BDA6812090F231340174A3D
:1016B000D35CD840164B1860164B1868FFF7B6F885
:1016C00070BD0D4A136801218B4323431360FFF75C
:1016D000F5F80600084B1A6801231340A342CAD04C
:1016E000FFF7ECF8801B064B9842F3D90320E7E79D
:1016F0000120E5E70120E3E700200240001002405E
:1017000088130000FFF8FFFFFFC7FFFFA4190008C0
:10171000040000200C00002013488546134801688F
:10172000090E134A914205D112481349016013482A
:101730001349016013481449144A002302E0D458A5
:10174000C4500433C4188C42F9D3114A114C0023FD
:1017500001E013600432A242FBD3FFF765F800F00A
:101760001DF8FEF7BBFFFEE700200020040000008C
:101770001F00000034100240010000000000014082
:1017800000000000000000203C040020D8190008E0
:101790003C040020E8040020FEE7000070B50C4D7A
:1017A0000C4E761BB61005D0002408CD01349847A6
:1017B000A642FAD100F0EAF8074D084E761BB610A3
:1017C00005D0002408CD01349847A642FAD170BD57
:1017D000CC190008CC190008CC190008D41900084D
:1017E000F0B50500830749D0541E002A45D00300F8
:1017F0000326CAB202E00135013C3ED301332A7010
:101800003342F8D1032C30D9FF220A401502154388
:101810002A0415430F2C34D92700103F3F093E01FD
:10182000B4461E001A001036664415605560956077
:10183000D5601032B242F8D101373F01DB190F27D2
:101840000C22274022403C00002A0ED03E1FB60842
:10185000B400A4461A001C1D644420C2A242FCD15C
:1018600003240136B6009B193C40002C05D0C9B2B8
:101870001C19197001339C42FBD1F0BD0300140008
:10188000C0E72700E2E7C046034B10B5002B02D0AB
:10189000024800F005F810BD00000000B118000873
:1018A00010B5010000230022002000F019F810BD3F
:1018B00070B5074D074C641BA41005D0013CA30074
:1018C000EB589847002CF9D100F066F870BDC0467F
:1018D000D4190008D81900087047C0467047C046A0
:1018E000F0B5D6464F464646C0B5264F82B00600F4
:1018F0003868924698468946FFF7EEFF224B1B68F0
:101900000193A423019A5B00D558002D2ED06C685A
:101910001F2C30DC002E0FD1631C6B604B46023451
:10192000A40038686351FFF7D9FF002002B0E0BC83
:10193000BA46B146A846F0BD882251462800A30009
:10194000EB189950873AA2408930FF300168114363
:1019500001608421404649005850022EDCD12B0002
:101960008D33FF3319680A431A60D5E715004D35EA
:10197000FF35D550CBE73868FFF7B0FF0120404274
:10198000D4E7C04638040020C0190008F8B5C046A6
:10199000F8BC08BC9E467047F8B5C046F8BC08BC09
:0419A0009E467047A8
:1019A400000000000000000001020304060708090B
:1019B400030406080C10182030000000100000205A
:0819C400F8E8FF7F01000000BC
:0819CC0089180008E900000879
:0419D400C100000846
:1019D80001010000000020000100000004000000D8
:1019E80000000000FC02002064030020CC0300205B
:1019F80000000000000000000000000000000000DF
:101A080000000000000000000000000000000000CE
:101A180000000000000000000000000000000000BE
:101A280000000000000000000000000000000000AE
:101A3800000000000000000000000000000000009E
:101A4800000000000000000000000000000000008E
:101A5800000000000000000000000000000000007E
:101A6800000000000000000000000000000000006E
:101A7800000000000000000000000000000000005E
:101A8800000000000000000001000000000000004D
:101A98000E33CDAB34126DE6ECDE05000B00000012
:101AA800000000000000000000000000000000002E
:101AB800000000000000000000000000000000001E
:101AC800000000000000000000000000000000000E
:101AD80000000000000000000000000000000000FE
:0C1E08000000000000000000E4040020C6
:0400000508001719BF
:00000001FF
