:020000040800F2
:1000000000200020512B0008011C0008031C0008E0
:1000100000000000000000000000000000000000E0
:10002000000000000000000000000000051C0008A7
:100030000000000000000000071C0008091C000868
:10004000D12B000800000000D12B0008D12B0008A4
:10005000D12B0008D12B0008D12B0008111C00085F
:1000600000000000D12B0008D12B0008D12B000884
:10007000D12B0008D12B000800000000D12B000874
:100080000000000000000000000000000000000070
:10009000D12B00080000000000000000D12B000858
:1000A00000000000D12B000800000000000000004C
:1000B000D12B0008D12B0008000000000000000038
:1000C00010B5064C2378002B07D1054B002B02D02E
:1000D000044800E000BF0123237010BD3C04002051
:1000E00000000000C42D0008044B10B5002B03D005
:1000F0000349044800E000BF10BDC04600000000F6
:1001000040040020C42D0008002243088B4274D311
:1001100003098B425FD3030A8B4244D3030B8B4208
:1001200028D3030C8B420DD3FF22090212BA030C11
:100130008B4202D31212090265D0030B8B4219D3F2
:1001400000E0090AC30B8B4201D3CB03C01A524112
:10015000830B8B4201D38B03C01A5241430B8B425A
:1001600001D34B03C01A5241030B8B4201D30B0343
:10017000C01A5241C30A8B4201D3CB02C01A52416A
:10018000830A8B4201D38B02C01A5241430A8B422D
:1001900001D34B02C01A5241030A8B4201D30B0216
:1001A000C01A5241CDD2C3098B4201D3CB01C01A30
:1001B000524183098B4201D38B01C01A524143093A
:1001C0008B4201D34B01C01A524103098B4201D328
:1001D0000B01C01A5241C3088B4201D3CB00C01A95
:1001E000524183088B4201D38B00C01A524143080D
:1001F0008B4201D34B00C01A5241411A00D2014632
:10020000524110467047FFE701B5002000F006F8A4
:1002100002BDC0460029F7D076E770477047C04658
:10022000002B11D1002A0FD1002900D1002802D0C3
:100230000021C943080007B4024802A140180290F7
:1002400003BDC046D9FFFFFF03B4684601B502985D
:1002500000F052F8019B9E4602B00CBC7047C046AD
:10026000F0B5CE46474680B5070099463B0C9C4604
:1002700013041B0C1D000E0061460004140C000C3E
:1002800045434B4360436143C0182C0C20188C46F7
:10029000834203D980235B029846C444494679438C
:1002A0007243030C63442D042D0CC918000440193B
:1002B0008918C0BCB946B046F0BDC04670B5002232
:1002C0000C4B04000D0000F073FF002804D1200047
:1002D000290000F0DDFE70BD064B00222000290041
:1002E00000F044FB00F0D4FE80231B069C466044D3
:1002F000F1E7C0460000E041F0B557464E4645469E
:10030000DE46E0B504000D009246994683B08B426C
:1003100030D82DD04946504600F072FF2900060023
:10032000200000F06DFF331A9846203B9B4633D4E3
:100330005A465346934042461F00534693401E0080
:10034000AF423AD8AF4200D178E05B46A41BBD4132
:10035000002B00DA75E000220023009201930123B4
:100360005A4693400193012342469340009328E06C
:100370008242CFD900220023009201930C9B002BD4
:1003800001D01C605D600098019903B0F0BCBB46D1
:10039000B246A946A046F0BD424620239B1A5246CB
:1003A000DA40414613004A468A40170042461F433E
:1003B000534693401E00AF42C4D90022002300924E
:1003C00001934346002BD9D0FB0772081A434646D7
:1003D0007B080EE0AB4201D1A2420CD8A41A9D4189
:1003E000012024196D410021013E24184D41002EA9
:1003F00006D0AB42EED9013E24196D41002EF8D152
:10040000009801995B4600196941002B24DB2B0001
:100410005A464446D3402A00E2401C005B46150081
:10042000002B2ADB26009E40330026004746BE40B4
:100430003200801A9941009001919FE7A342BCD8F5
:1004400083E74246202300219B1A0022009101925B
:100450000122DA40019286E7424620239B1A2A00B5
:1004600046469A402300F340444613432A00E240A4
:100470001C005B461500002BD4DA42462F002023D7
:10048000260097409B1ADE403B003343CDE7C04631
:10049000F0B557464E464546DE46E0B598460C0355
:1004A0004B000600924687B0240B5B0DCF0F002B4C
:1004B00000D15EE1DA4A934200D177E1420FE400D5
:1004C0001443802212041443D64AC5009446634460
:1004D0000093002399469B46434642461E03D20F93
:1004E0005B0050469046360B5B0D00D122E1CC4AB2
:1004F000934200D164E1CB49420F8C46009963449A
:10050000F6008C46164380229C4412046346164330
:10051000C200002000930099434601318C464946B1
:100520007B4001930F2926D8BF4B890059588F462D
:10053000434601933400150083465B46022B16D0D8
:10054000032B00D105E2012B00D0CFE000220024D4
:100550000025019B12052243DB071A4328001100E6
:1005600007B0F0BCBB46B246A946A046F0BD002489
:100570000025AB4AEDE7280C2D042D0C2B00110CA7
:100580001204120C5343984613002F00434399461C
:100590004F434F44BB4647460B003F0CBA465F46AD
:1005A000434357440293B94506D99A4680235B02D8
:1005B0009946CA44534602933B0C9B4643461B0450
:1005C0003F041B0C98463B0043440493330C360411
:1005D000360C9846330043439946434643432F0025
:1005E0009A46434677435D43380C4D444519A94527
:1005F00003D980235B029946CA443F04280C3F0C70
:100600002D04ED19270C2404240C03002000504372
:100610007A4391463A0053440593030C9A464A4361
:10062000614349445144AB44894503D980235B026B
:1006300099464A4400040B0C000C090409182000D8
:100640009946434670435C437E435F43030C9846A0
:10065000A41944444A440397A64204D980235B0268
:10066000984647440397029B00045B441E00AB423C
:10067000AD4123049A46059B761898468E428941DF
:10068000000C504440446D424719B84693464942D5
:100690008946C344D94498428041A845AD41934519
:1006A0009241894589416D4240422843240C52427F
:1006B00049420A43039B00198018C7184B46DC0DBA
:1006C000049B75021D436A1E95414B46F60D7F0241
:1006D00035435A023C431543FB0100D41CE1012180
:1006E0006A080D401543E207154364084F49614409
:1006F000002900DCB0E06B0709D00F222A40042A51
:1007000005D02A1DAA42AD416D4264191500E301CE
:1007100004D58021464AC90014406144454A9142AB
:1007200000DD24E76207ED08640249051543240B48
:100730004A0D0EE75246324300D17FE0002E00D131
:10074000DCE0300000F03EFD02000B3A1D2301000A
:100750009B1A52460839DA408E40164352468A4068
:10076000009B3549181A03008C466344002000930F
:10077000D1E6250005434AD0002C00D1B0E020008E
:1007800000F020FD010002000B391D2310005B1A50
:100790003100350008388440D94085400C43264854
:1007A000831A0093002399469B4695E6050025434E
:1007B00026D1082200930223002491469B468BE613
:1007C0005246009B324310D1154900268C466344A3
:1007D0004946009302231943894602209BE65B4663
:1007E0000197022B00D0ABE6C1E60D4A03209446E8
:1007F00063444A46009303231A43914652468AE6CD
:100800000C2200930323050091469B4664E60423D3
:10081000994600230093013300249B465CE6C046C2
:10082000FF07000001FCFFFFDC2D0008FF030000B4
:10083000FFFFFFFEFE0700000DFCFFFF49460123FE
:10084000194389460026012065E6002380240025FF
:10085000434A019324037CE60120401A382800DD36
:1008600074E61F285BDD1F2223005242511ACB4041
:100870001900202803D03B4A6244944025436A1E55
:1008800095412A000A4307210D000024154011421A
:100890005BD00F2100241140042953D0111D914237
:1008A00092415242A4180A0023024BD5012200248F
:1008B00000254EE680231B031C4209D01E4207D1AF
:1008C00033431C0343461500240B254A019340E69D
:1008D0008022120314432403214A240B019738E693
:1008E00000F070FC01000200153120321C2900DCF0
:1008F0004BE7340008380025844050E700F062FCE4
:1009000003001A00153220301C2A00DC1EE7564670
:10091000083B00229E4023E7009B9C46E6E61249E6
:10092000220061442E008D408A40C640691E8D41E0
:1009300032432A43C4405307B6D00F211140042943
:10094000ACD1B1E765076402240BD208154300223D
:10095000FFE58022120314432403014A240BF8E527
:10096000FF0700003E0400001E040000F8B55746D3
:100970004E464546DE46E0B51E0017004A000B0312
:10098000520D5B0A9046420F1A43CD0FCD4C3103F6
:10099000C300944670007A0F490AFF009A46B94690
:1009A000400DF60F1143A04200D1B1E001225640A4
:1009B000B346B54200D188E04246121A002A00DC54
:1009C000AEE0002800D1C1E0BE48804500D151E131
:1009D000802000040143382A00DD7BE11F2A00DD6E
:1009E000EEE120203E00801A0C00D640D140874026
:1009F00062468440521A781E874194463443274306
:100A0000DC1BA3429B4162465B42D31A99464B468C
:100A10001B0200D418E14B465802430A99464B4644
:100A2000002B00D137E1484600F0CCFB010008392B
:100A30002023220048465B1ADA4088408C40434617
:100A40001043884500DD36E1C91A4B1C1F2B00DD21
:100A5000EAE020222600D21A01009440DE40D8406D
:100A600000239140621E94418146984631430C43D5
:100A7000630709D00F232340042B05D0231DA34275
:100A8000A4416442A1441C004B461B0200D4DEE09A
:100A900041468C4B0131994200D1E7E04B468A48F0
:100AA000E4080340180049055B07400223434A0D50
:100AB000040B1205ED0722432A4318001100F0BC75
:100AC000BB46B246A946A046F8BD4246121A002AC5
:100AD00052DD002800D19CE0A04500D1CAE0802072
:100AE00000040143382A00DD49E11F2A00DC97E1B8
:100AF00010000E002038C640202A04D04020821A60
:100B000091400F43B9464C46621E944134433AE14A
:100B10000A003A4328D0B346B5422BD06B4A424430
:100B2000002A5DD042464446821A002C00D0F5E0EF
:100B300065461D4300D19CE1551E012A00D1FBE111
:100B4000604CA24200D1BDE12A00F0E00800384329
:100B500000D1C3E0501E012A00D1A8E1594CA242A5
:100B600000D187E0020036E701225640B346B54285
:100B700000D021E7554A4244002A00D1B5E0424660
:100B80004446821A002C00D138E14E4EB04200D1CA
:100B9000DEE18026644636043443A446382A00DD6C
:100BA00096E11F2A00DD24E22026B41AA2466446FC
:100BB0005646B440A1461C004E46D440264334005D
:100BC0005646B3405E1EB3411C436346D340C9182A
:100BD000E419BC42BF417F42B94680468944D8E00F
:100BE00040463B4C0130204200D0B4E04046002853
:100BF00000D044E16046184300D190E1080038433A
:100C000000D0AAE16146DB0849070B436146CC08E6
:100C100027E00800384361D0501E012A00D139E195
:100C2000A24227D002005DE702001F39CA4011002E
:100C3000202B03D04022D31A98400443631E9C41CA
:100C40000023994698460C43630700D012E74B46B1
:100C50004A46E4085B072343D408424619498A42BE
:100C60000ED024035205240B520D22E70A00002463
:100C700000231EE7DB086246520713436246D4088E
:100C80001A00224300D1FCE1802212031443240302
:100C90000C4A240B0DE7200000F094FA01001831F3
:100CA0001F2900DCC4E608388440434620000024A5
:100CB000884500DCC8E6044A5B1A10409846814625
:100CC000D6E6C046FF070000FFFF7FFF01F8FFFFE9
:100CD000FE0700000F437A1E974191E66146DB084C
:100CE00049070B436146CC08B8E74046D34C013076
:100CF000204200D0A2E04046002800D001E160463A
:100D0000184300D15EE10800384300D05FE161463E
:100D1000DB0849070B436146CC08A2E7C84DA8424F
:100D200000D1CFE0802564462D042C43A446382A08
:100D300056DC1F2A00DDD1E020251E00AD1A6446D6
:100D4000AB40AC40D6405D1EAB41344323436446C8
:100D5000D440091B49E06046DC1B461AA34280418F
:100D60004042814630004E46801B8146000276D4C8
:100D70004B46234300D052E60024002571E7394357
:100D80000C00621E9441E4189C429B415B42634408
:100D900099464B461B0200D456E701239C46A84BBC
:100DA000E044984538D04B46A6480122034018003D
:100DB000630814401C43C3071C434308994657E685
:100DC00010000E002038C640202A04D04020821A8D
:100DD00091400F43B9464F467A1E974137430FE67D
:100DE00062461A4313005A1E9341FC1AA742BF41A0
:100DF0007F42CB1B99465D46804608E666461E4309
:100E000000D1BEE0561E012A00D109E18C4CA2425D
:100E100000D119E13200C1E642460024002348E631
:100E200020200C00801A3E0087408440D640781E67
:100E30008741D14034433C438C44A4E7804A9042EC
:100E400000D1E9E0DF199F429B4161445B42C91830
:100E5000CC077F084B08994680463C43F4E6FC1AD1
:100E6000A742BF4163467F42C91ACB1B99465D46E4
:100E7000D5E5FF084B075D463B43CC08EEE66246EE
:100E80001A4300D082E00B003B431BD18024002595
:100E90002403F9E6DC199C429B41614489465B428C
:100EA00099444B461B0244D401239846CCE6DC1BF4
:100EB0006246A3429B41511A5B42CB1A99460123D9
:100EC0009846A4E5FF084B075D463B43CC08D7E6B0
:100ED00062461A431400631E9C4179E6150064467D
:100EE000203DEC40A046202A05D040256446AA1AA1
:100EF000944023439A465446631E9C4143462343F1
:100F000073E762461A4323D00A003A4300D0A0E0B8
:100F10006246DB08520713436246D408B0E60B0072
:100F20003B4300D128E7FF084B075D463B43CC0815
:100F300097E60223984636E7FC1AA742BF4163466C
:100F40007F42C91ACB1B994601235D4698465EE550
:100F50004B07FF083B43CC0892E6DC1B6046A342EC
:100F6000B641401A7642801B8146000260D5FC1AC9
:100F7000A742BF4163467F42C91ACB1B99465D46D3
:100F800076E5FF084B073B43CC0867E60A00DB0821
:100F90003A4300D16FE66246520713436246D408D3
:100FA00080221203144207D0C808104204D15D46C3
:100FB0000400FB0849070B435A0FDB00DB0852070C
:100FC00013435DE64B07FF083B43CC0849E6DC19B9
:100FD0009C429B41614489465B4299444B461B02BB
:100FE00000D431E64A46174B1A40012391469846F1
:100FF0002AE616006446203EF440A046202A05D08A
:1010000040266446B21A944023439A465446631ECF
:101010009C4143461C43DBE502000024002348E5D5
:10102000DC19BC42BF41614489467F42B94438E77C
:101030004B46234300D19FE606E6C046FE0700006C
:10104000FF070000FFFF7FFFFF084B073B43CC0873
:1010500016E66246DB08520713436246D408802234
:101060001203144207D0C808104204D15D460400A0
:10107000FB0849070B435A0FDB005207DB081343F9
:10108000FEE50023014A1C0013E5C046FF070000EF
:101090000A0030B5134C530009030500090B00206A
:1010A0005B0DD20FA34204DD0F48834202DD0F4BDC
:1010B000D01830BD8020400301430D48C01A1F28BE
:1010C00008DD0C48C31AD9400B005842002AF0D161
:1010D0001800EEE7084CC540A446634499400B0055
:1010E0002B43F2E7FE0300001D040000FFFFFF7F1B
:1010F0003304000013040000EDFBFFFF10B5041ED5
:1011000010D000F05FF80F4B1B1A0A2811DC0B22DD
:101110002100121AD14015300A035B058440120BDE
:101120005B0D01E0002300221B0513432000190082
:1011300010BD22000B3882405B0512030024120B05
:101140005B0DF1E71E0400008446100062468C46E9
:101150001900634600E0C0461FB500F005F90028FD
:1011600001D40021C8421FBD10B500F055F840421F
:10117000013010BD10B500F0F7F8002801DB0020A9
:1011800010BD012010BDC04610B500F0EDF80028DC
:1011900001DD002010BD012010BDC04610B500F0DB
:1011A0007DF8002801DC002010BD012010BDC046E4
:1011B00010B500F073F8002801DA002010BD0120FE
:1011C00010BDC0461C2101231B04984201D3000C12
:1011D00010391B0A984201D3000A08391B099842AA
:1011E00001D30009043902A2105C40187047C046C0
:1011F00004030202010101010000000000000000E0
:1012000010B5002903D1FFF7DDFF203002E0080010
:10121000FFF7D8FF10BDC046F0B54E464546DE4646
:1012200057469046E0B517001A03120B0500844696
:1012300019480E034C0091465A00DB0F9B46360BB3
:10124000640DC90F520D844219D0824210D0012082
:1012500094420ED14E450CD10120C44509D15945C7
:1012600017D0002C05D130002843431E984100E0E0
:101270000120F0BCBB46B246A946A046F0BD3300F3
:1012800001202B43F5D1A242F3D14B463B43F0D191
:10129000E2E70020EDE7C046FF070000F0B5474653
:1012A000CE460400180016001B031B0B2D4D4A00F0
:1012B000994680B543000F03A446B0463F0B520D3C
:1012C000C90F5B0DC00FAA4221D0AB4213D0002A38
:1012D00022D13C43002B02D14D462E4322D0002C7C
:1012E00010D0814222D00220013908400138C0BC10
:1012F000B946B046F0BD4D462E4329D1002AF0D163
:101300003C43EED10028F2D101204042EFE73D00FE
:1013100025431DD19342EED0002BE2D14C4626430B
:10132000DFD1E0E70020002CE1D0DCE79A420ADCC4
:10133000E8DB4F45D7D80ED000204F45D7D2002943
:10134000E2D00800D3E74342584140000138CEE7DD
:1013500002204042CBE7C445C5D80020C445C6D2D0
:10136000EDE7C046FF070000F0B54746CE46040053
:10137000180016001B031B0B2C4D4A00994680B524
:1013800043000F03A446B0463F0B520DC90F5B0D3F
:10139000C00FAA420DD0AB4210D0002A27D13C4347
:1013A000002B11D14D462E430ED10020002C15D01C
:1013B0000EE03D00254310D1934218D14D462E43F7
:1013C0000BD1002A02D13C43002C0BD0814214D017
:1013D000022001390840013800E00220C0BCB946B3
:1013E000B046F0BD0028F9D101204042F6E7002BBD
:1013F000ECD14C462643E9D1EAE79A4204DD434268
:10140000584140000138E9E79A42EBDB4F45DFD80D
:1014100006D000204F45E1D20029E5D00800DDE7E5
:10142000C445D5D80020C445D8D2F5E7FF07000051
:10143000F0B589B01422002103A801F0EDFB324B76
:10144000D96A04221143D962D96A0A400092009AEB
:10145000DA6A01263243DA62DA6A32400192019A8C
:10146000D96A02221143D962DB6A1A400292029BB6
:10147000A025ED050022FF21280000F083FFC023F6
:101480001B020393032704970024059403A91F4814
:1014900000F0B0FEFF230393EE3B04930594069403
:1014A00003A9280000F0A6FEF923039304970594EE
:1014B00003A9174800F09EFEE7231B02039304973D
:1014C000059403A9280000F095FE80231B010393D7
:1014D0008427BF030497059403A9280000F08AFE1F
:1014E00080235B0103930497059603A9280000F06D
:1014F00081FE00220021072000F024FE072000F0DA
:1015000051FE09B0F0BDC046001002400008005076
:1015100000040050024B00221A7001321A7070470A
:101520000000002010B50D4B00221A700C4C20005A
:1015300000F028FD3221200000F054FD200000F0D2
:10154000FFFD830504D40020044B01221A7010BD56
:10155000034800F0ADFDC0B2F6E7C0460000002031
:1015600058040020F0B5D64600B582B00500384BCF
:101570001868FFF7C3FD0022364BFEF789FF0022F3
:10158000354B00900191FEF783FFFEF797FE0400B4
:10159000324B9A46ED00EA5CD3431B04FF273F041D
:1015A0003B401343A026F605B36100F08BFB554486
:1015B0006A78D3431B043B401343B361200000F01F
:1015C00081FBAA78D3431B043B401343B361200043
:1015D00000F078FBEA78D3431B043B401343B3612C
:1015E000200000F06FFB2A79D3431B043B401343D8
:1015F000B361200000F066FB6A79D3431B043B40D3
:101600001343B361200000F05DFBAA79D3431B04B0
:101610003B401343B361200000F054FBEA79D3430D
:101620001B043B401343B361200000F04BFBFF233E
:10163000B36100220A4B00980199FEF729FFFEF7DB
:101640003DFE00F03FFB02B080BCBA46F0BDC04694
:10165000B80400200000503F000024403C2E000849
:101660000000444070B5022800D1A1E03AD800281B
:1016700056D0012875D1C0469C4B18689C4B1B68FE
:10168000C01AFA218900FEF73FFD05003C21FEF754
:10169000C1FDCCB23C212800FEF736FDC5B22B209F
:1016A000FFF760FF0A212800FEF72EFDC0B2FFF70A
:1016B00059FF0A212800FEF7ADFDC8B2FFF752FF1F
:1016C0002D20FFF74FFF0A212000FEF71DFDC0B2BD
:1016D000FFF748FF0A212000FEF79CFDC8B2FFF784
:1016E00041FF3EE005283CD1804B1B68804A1268D0
:1016F0009A1AA021C9008A4200D2B4E00F221340F6
:10170000062B00D8D1E00D2B00D9DBE03120FFF70C
:1017100029FF1720FFF726FF1820FFF723FF20E0FF
:101720003120FFF71FFF3420FFF71CFF714B188893
:10173000714B984216D86F4B1888FA239B00984239
:1017400017D26C4B188863281FD86A4B1888092851
:1017500027D8684B18880A21FEF75CFDC8B2FFF74E
:1017600001FF70BD6549FEF7CFFCC0B2FFF7FAFE7E
:10177000E1E76249FEF74EFD88B2FA218900FEF7E3
:10178000C3FCC0B2FFF7EEFEDBE7FA218900FEF7EB
:1017900041FD88B26421FEF7B7FCC0B2FFF7E2FE5C
:1017A000D3E70A21FEF7B0FCC0B2FFF7DBFED0E7BB
:1017B000534B1A88504B9A4222D8514B1888FA231F
:1017C0009B00984235D24E4B1888632838D84C4B32
:1017D0001888092840D84A4B18880A21FEF71AFDB4
:1017E000C8B2FFF7BFFE3420FFF7BCFE1B20FFF797
:1017F000B9FE1920FFF7B6FE1620FFF7B3FEB0E7DB
:101800001D20FFF7AFFE1820FFF7ACFE1820FFF7F2
:10181000A9FE3420FFF7A6FE0F20FFF7A3FE0A2043
:10182000FFF7A0FE1C20FFF79DFE1D20FFF79AFE8C
:10183000C3E71900FEF768FCC0B2FFF793FEC2E7EA
:10184000FA218900FEF7E6FC88B26421FEF75CFC11
:10185000C0B2FFF787FEBAE70A21FEF755FCC0B217
:10186000FFF780FEB7E72220FFF77CFE0E20FFF790
:1018700079FE1C20FFF776FE3420FFF773FE182058
:10188000FFF770FE1B20FFF76DFE3420FFF76AFEA6
:101890001720FFF767FE1820FFF764FE3420FFF7DC
:1018A00061FE2720FFF75EFE5BE73120FFF75AFE5F
:1018B0002220FFF757FE0E20FFF754FE1C20FFF7F3
:1018C00051FE4EE73120FFF74DFE1620FFF74AFE8E
:1018D0000A20FFF747FE2220FFF744FE0B20FFF708
:1018E00041FE0E20FFF73EFE3BE7C046C404002049
:1018F000CC040020B40400200F27000010270000B3
:10190000C804002010B5304B1B78002B07D0802373
:101910001B01984204D080235B0198421DD010BD6A
:101920002A4B1B78012BFAD1294A13780133DBB2F9
:101930001370072B02D9130000221A70244B1A7857
:1019400080231341FF229A431B04FF2109040B400B
:101950001343A022D2059361E1E700F0ADF91B4BE0
:101960001B78022B0DD0032B1AD0012BD7D1A0232B
:10197000DB05FF229A61154BFD3A1A70154B186072
:10198000CDE7124B03221A70124A1368C31A124988
:101990000B601060114B1860114B01221A80BEE7DA
:1019A0000C4B18600C4B1A68110919600C4A13880B
:1019B000013313800B48FEF7A7FB0B4B1880044B39
:1019C0001878FFF74FFEAAE7000000200100002072
:1019D000C0040020C4040020B8040020CC0400206F
:1019E000B404002060EA0000C804002072B6FEE7DC
:1019F00000B583B008220021684601F00DF91B48AC
:101A00001B4B03600023C363C022120642601022F6
:101A1000826083630F3A0261C36020214354013125
:101A200042548362C221FF3141629639FF394354E7
:101A30002839416180214901016383614263C261A8
:101A400000F0AAF900280CD10A4B009380235B0117
:101A500001936946054800F02FFB002803D103B02D
:101A600000BDFFF7C3FFFFF7C1FFC04658040020C9
:101A7000002401400002002400B593B0342200216C
:101A800005A801F0C9F814220021684601F0C4F845
:101A900014490B68144A1A4080231B0113430B603E
:101AA000102305930F3B0B9300230C93A0221202EB
:101AB0000D920E9305A800F0D1FC00280ED10F2343
:101AC000009300230193029303930493002168463B
:101AD00000F052FF002803D113B000BDFFF786FFCE
:101AE000FFF784FF00700040FFE7FFFF10B500F034
:101AF000C3F8FFF7C1FFFFF70DFD020C1A4B1A8068
:101B00001A4B1880FFF794FCFFF772FF23E0A02325
:101B1000DB05174A9A61A023DB05164A9A61A023C8
:101B2000DB05154A9A61A023DB05144A9A61A023BC
:101B3000DB05134A9A61A023DB05124A9A61A023B0
:101B4000DB05114A9A61A023DB05FF2212049A618A
:101B5000C82000F0B7F8FFF7E5FC40010728F7D8E8
:101B600080000A4B1B589F46BE040020BC04002086
:101B7000FE000100FC000300F8000700F0000F0069
:101B8000E0001F00C0003F0080007F001C2E000806
:101B9000054B5A6B01210A435A63996B8022520507
:101BA0000A439A637047C0460010024010B586B0E1
:101BB00004001422002101A801F02EF822680D4B28
:101BC0009A4201D006B010BD0B4B596B8022920097
:101BD0000A435A63D96A02221143D962DB6A13406D
:101BE0000093009B01920323029301A9034800F094
:101BF00001FBE7E700240140001002400004005010
:101C0000FEE7FEE77047704710B500F049F810BDD9
:101C100010B58020000100F0BBFB8020400100F0E7
:101C2000B7FB10BD7047000010B504000F4B1978CA
:101C3000FA208000FEF768FA01000D4B1868FEF7E5
:101C400063FA00F0BBFA00280DD1032C01D9012062
:101C50000AE0013000222100404200F073FA054BF7
:101C60001C60002000E0012010BDC04608000020DC
:101C7000040000200C00002010B5084A1368402121
:101C80000B4313600320FFF7CFFF041E02D0012493
:101C9000200010BDFFF77CFFFAE7C046002002409D
:101CA000034A1168034B1B785B1813607047C046EA
:101CB000D004002008000020014B18687047C0467F
:101CC000D004002070B50400FFF7F6FF0500631C88
:101CD00002D0044B1B78E418FFF7EEFF401BA04234
:101CE000FAD370BD0800002010B582B00400084B84
:101CF00018680849FEF708FA4443019402E0019B82
:101D0000013B0193019B002BF9D102B010BDC046ED
:101D10000400002040420F0070B504000268916882
:101D200003230B40012B0DD091681A4B19420ED0A2
:101D3000636D102213436365A36D0F3A1343A365CC
:101D4000012070BD1368DB07EED50020F9E793682A
:101D500001210B4393600120FFF7C6FFFFF7ACFFA3
:101D6000050023681B68DB0712D4FFF7A5FF401BA3
:101D70000A28F6D923681B68DB07F2D4636D1022AA
:101D800013436365A36D0F3A1343A3650120D8E79E
:101D90000020D6E71700008070B5041E00D1E2E0F5
:101DA000436D002B30D0636DDB0633D4226891681D
:101DB000042005000D4008422CD1616D6B4B194089
:101DC0000633FF3319436165916801330B40012BE2
:101DD00029D06368C02109068B4228D08021C9051B
:101DE0008B4224D0802109068B4220D013699B00AE
:101DF0009B0813615E4B1A685E490A401A601A68B4
:101E000061680A431A601BE0836550228354FFF720
:101E1000CDFEC8E7636D1022134363655023002293
:101E2000E254012070BD1368DB0713D4D1E71369B6
:101E30009B009B0813612268136961680B4313615F
:101E40002268D36818218B43D3602268D368A168C5
:101E50000B43D360464A136847490B40136013682D
:101E6000616B49060B43136023689A68D20004D45F
:101E70009968802252050A439A602368DA683F49CC
:101E80000A40DA602068C268E368216902292DD01F
:101E90002B432021615C49030B432C21615C4900E9
:101EA0000B43216B0B43A16989030B43E169C90310
:101EB0000B431343C360636AC222FF32934205D0CF
:101EC0002168CA68A06A03431343CB602123E35C03
:101ED000012B0DD0E36B012B1ED023681A69D207AA
:101EE0002DD51A6901218A431A6128E00425CFE71C
:101EF0001F33E35C002B06D12268D16880235B028C
:101F00000B43D360E6E7636D202213436365A36D43
:101F10001F3A1343A365DDE72268136918490B4094
:101F2000136121680A69236C606C0343A06C03434E
:101F300013430B612268136901210B43136122686B
:101F4000536907218B43536122685369A16B0B438B
:101F500053610023A365636D03229343023A134345
:101F6000636500205EE701205CE7C046FDFEFFFFE1
:101F700008270140FFFFC3FFFFFFFFFD1902FEFF1F
:101F800003FCFFFF10B5040003689B685B0723D4C4
:101F90005023C35C012B21D050230122C254C369BA
:101FA000012B14D10020636D0D4A1A4080235B0081
:101FB000134363650023A3655022A3542368343A76
:101FC0001A602268936804210B43936010BDFFF7E9
:101FD000A3FE0028FAD1E6E70220F7E70220F5E7A2
:101FE000FEF0FFFFF8B504000E004769082F04D08B
:101FF0000368DB68DB0718D40C27FFF75DFE0500DC
:1020000023681A6817421FD1731CF9D0002E15D10E
:1020100023681B681F42F3D1636D04221343636579
:1020200050230022E254032034E0436D2022134366
:10203000436550230022C25401202BE0FFF73CFEF1
:10204000401BB042DCD9E3E7616D802292000A4375
:102050006265D968C0221201114214D12022A25C0B
:10206000002A10D11A6812070DD59A68520712D4A7
:102070005A680C218A435A60636D0C4A134004323B
:10208000FF3213436365A369002B0DD123680C2233
:102090001A600020F8BD636D202213436365A36DB1
:1020A0001F3A1343A365EEE70020F3E7FEFEFFFFB0
:1020B0000368186C7047000010B55023C35C012BF7
:1020C00036D050230122C25403689A68520717D4AD
:1020D000184A4C6894421CD09C6A0A685203520BFE
:1020E00022439A620B689B0305D5134A116880232B
:1020F000DB030B43136050230022C254002010BDA9
:10210000436D20221343436550230022C254012013
:10211000F5E79C6A0A685203520B94439C620B6871
:102120009B03E8D5044A136804490B401360E2E7B7
:102130000220E4E70110000008270140FFFFBFFF75
:10214000406D704770B5002811DB8308134EC03313
:102150009B009D5903242040C000FF2214008440AE
:10216000A54389010A4082402A439A5170BD0F233A
:102170000340083B9B0806339B00094A944663448E
:102180005C6803221040C000FC3215008540AC435F
:1021900089010A40824022435A60E7E700E100E0FB
:1021A00000ED00E0002805DB1F2318401E3B8340A4
:1021B000014A13607047C04600E100E00138802307
:1021C0005B0498420FD2094A50600948036A1B0217
:1021D0001B0AC02109060B430362002393600733E7
:1021E0001360002070470120FCE7C04610E000E0CB
:1021F00000ED00E0F0B5002357E084685F0003269F
:10220000BE40B4432600CC68BC403443846044687C
:1022100094434A681609012232409A4022434260A0
:1022200053E0DC080834A400265805321A40920016
:102230000F279740BE430F6997403A003243225020
:1022400057E0052600E00026A64034003C43023259
:102250009200454E9451454A1468EA432600AE4325
:102260004F68FF0301D52C432600404C266064686C
:10227000260016404F68BF0301D52C4326003B4C77
:102280006660A468260016404F68FF0201D52C4303
:102290002600364CA660E46822404E68B60201D59E
:1022A0002A002243314CE26001330C682200DA40FC
:1022B00058D001229A40250015401442F4D003243E
:1022C0004E683440013C012C97D903224C682240CF
:1022D000032A09D0C2685E000324B440A24314005C
:1022E0008A68B2402243C26003224C682240022A1C
:1022F00097D004685E0003221700B740BC434F68C4
:102300003A40B24022430260C02292024C6814421A
:10231000CAD0174C626B0126324362639A08941C40
:10232000A400114EA75903261E40B4000F26A64054
:10233000B743A026F605B04285D00E4EB0420BD072
:102340000D4EB0420AD00D4EB04209D00C4EB042F4
:1023500000D176E7062677E7012675E7022673E7C0
:10236000032671E7F0BDC0460000014000040140B3
:10237000001002400004005000080050000C005003
:10238000001C0050002A01D0816170478162FCE787
:1023900010B5054B5B69184200D110BD024B586166
:1023A000FFF7B0FAF9E7C0460004014010B5264B2C
:1023B000DA680C231340082B42D00C2B11D0042BCD
:1023C00009D0214B5A68520B072313400133802058
:1023D0000002984010BD1C4B1B68DB0632D51B4821
:1023E000F8E7910C0F230B401949C85C920D0323A9
:1023F0001A40541C144BDB68DB0309D5154A002333
:102400000021FDF72DFF22000023FDF709FFE1E782
:102410000D4B1B68DB0609D50C4A00230021FDF794
:102420001FFF22000023FDF7FBFED3E70A4A00232B
:102430000021FDF715FF22000023FDF7F1FEC9E79B
:102440000448C7E70448C5E70010024000093D0002
:10245000F42F000800127A000024F400F0B583B0D5
:10246000041E00D165E2C54BDA680C251540DE6814
:1024700080235B021E400368DB0736D5082D2CD075
:102480000C2D28D0636880225202934255D0A0229E
:10249000D202934258D0B94B1A68B9490A401A601F
:1024A0001A68802149020A400192019A1A68B549C6
:1024B0000A401A606368002B52D0FFF7FDFB07004B
:1024C000AE4B1B689B0310D4FFF7F6FBC01B6428C0
:1024D000F6D903202EE2002ED4D0A84B1B689B0314
:1024E00003D56368002B00D126E223689B076DD5D6
:1024F000E3689A0605D5A148026820210A430260D4
:102500008B43042D3CD00C2D38D0002B00D1B0E0F3
:102510009A490A680920824313430B60FFF7CCFBFA
:102520000600964B1B685B0700D599E0FFF7C4FBDC
:10253000801B0228F5D90320FCE1904A1168802312
:102540005B020B431360B5E78C4B19688022D20203
:102550000A431A601968802252020A431A60A9E7E6
:10256000FFF7AAFB0700854B1B689B03BDD5FFF750
:10257000A3FBC01B6428F6D90320DBE1002EC4D1E5
:102580007E4A1268520702D5002B00D1D6E17B4E5D
:1025900072687D490A40216909020A437260326803
:1025A00009218A4313433360FFF700FFF2681209E1
:1025B0000F231340754AD35CD840754B1860754B98
:1025C0001868FFF731FB002800D0B3E12368DB0671
:1025D0002DD5002D60D1694B1B689B0503D5A369E0
:1025E000002B00D1ACE1654A53686B490B40216A6E
:1025F0000B43536053681B021B0AE16909060B4336
:102600005360236A590B013180231B028B40D16830
:1026100009090F220A405D498A5CD3405C4A136075
:102620005C4B1868FFF700FB002800D082E12368AC
:102630001B077DD56369002B67D0504A136D0121BC
:102640000B431365FFF738FB06004C4B1B6D9B07D4
:102650006ED4FFF731FB801B0228F6D9032069E115
:1026600046494B68484A13402269120213434B60A3
:10267000ACE7424A136801218B431360FFF71CFB50
:1026800006003E4B1B685B07A0D5FFF715FB801BC0
:102690000228F6D903204DE1A369002B22D0374A46
:1026A000116880235B000B431360FFF705FB0600F6
:1026B000324B1B689B0506D4FFF7FEFA801B0228ED
:1026C000F6D9032036E12D4A536833490B40216A7D
:1026D0000B43536053681B021B0AE16909060B4355
:1026E0005360A4E7254A13682C490B401360FFF799
:1026F000E3FA0600214B1B689B0598D5FFF7DCFA2F
:10270000801B0228F6D9032014E11C4A136D012115
:102710008B431365FFF7D0FA0600184B1B6D9B0720
:1027200006D5FFF7C9FA801B0228F6D9032001E17C
:1027300023685B0700D48EE0104B9B6BDB001BD43F
:102740000E4A916B80235B050B4393630126144B68
:102750001B68DB0528D5A36880225200934237D03E
:10276000002B4DD1054B1A6D0C490A401A651A6DA4
:102770000C490A401A6531E00026E8E700100240E3
:10278000FFFFFEFFFFFFFBFFFFE0FFFFE42F00085E
:10279000040000200C000020FF1FFFFFFFFEFFFFD2
:1027A00000700040FFFBFFFF6B4A116880235B0055
:1027B0000B431360FFF780FA0700674B1B68DB05CC
:1027C000C9D4FFF779FAC01B6428F6D90320B1E019
:1027D000624A116D80235B000B431365A368002BD5
:1027E00028D0FFF769FA07005C4B1B6D9B0530D4BE
:1027F000FFF762FAC01B5A4B9842F5D9032099E0C3
:10280000A022D200934209D0544B1A6D55490A4078
:102810001A651A6D54490A401A65DFE74F4B196D66
:10282000013AFF3A0A431A65196D802252000A43A1
:102830001A65D3E7FFF740FA0700484B1B6D9B056D
:1028400007D5FFF739FAC01B454B9842F5D903204D
:1028500070E0012E1AD0636A002B00D172E00C2DBB
:102860004FD0022B18D03D4A136840490B401360EB
:10287000FFF722FA0400394B1B689B013FD5FFF795
:102880001BFA001B0228F6D9032053E0334A936B4E
:1028900037490B409363DEE7304A136833490B40F6
:1028A0001360FFF709FA05002C4B1B689B0106D546
:1028B000FFF702FA401B0228F6D903203AE0274925
:1028C000CB682C4A1340A26AE06A0243206B0243A1
:1028D0001343CB600A6880235B0413430B60FFF74C
:1028E000EBF904001D4B1B689B0106D4FFF7E4F9CC
:1028F000001B0228F6D903201CE000201AE000206B
:1029000018E0012B20D0154BDA6880235B021340BE
:10291000A16A8B421AD1F0239B031340E16A8B42D8
:1029200016D1C0231B041A40236B9A4212D10020F7
:1029300000E0012003B0F0BD0120FBE70120F9E732
:102940000120F7E70020F5E70120F3E70120F1E798
:102950000120EFE70120EDE7007000400010024089
:1029600088130000FFFEFFFFFFFBFFFFFFFFFFFEDE
:10297000FFFFFFEFFFFF02FF70B505000C0000280E
:1029800000D1D1E06A4B1A68012313408B4219D35E
:102990002B689B0706D5674AD368F0218B43A9684B
:1029A0000B43D3602B68DB077BD56B68022B20D0F1
:1029B000032B40D0012B44D05E4A126892051DD4EF
:1029C000012099E05A4A136801218B432343136085
:1029D000FFF772F90600564B1A6801231340A34211
:1029E000D6D0FFF769F9801B534A9042F3D90320F0
:1029F00082E0504A1268920300D497E04D49CA68B9
:102A0000032082431343CB60FFF756F906006B683F
:102A1000022B1CD0032B28D0012B34D0454BDB6874
:102A20000C221A423DD0FFF747F9801B424B9842D7
:102A3000F4D9032060E03F4A12689201DED40120FD
:102A40005AE03C4A12685207D8D4012054E0394B6E
:102A5000DA680C231340082B23D0FFF72DF9801BD5
:102A6000354A9042F3D9032046E0324BDA680C2312
:102A700013400C2B15D0FFF71FF9801B2E4B9842EB
:102A8000F3D9032038E02B4BDA680C231340042BD6
:102A900007D0FFF711F9801B274B9842F3D9032089
:102AA0002AE0234B1A6801231340A34225D82B6840
:102AB0005B0706D51F4AD36820490B40E9680B43E2
:102AC000D3602B681B0707D51A49CB681C4A1340F3
:102AD0002A69D2001343CB60FFF768FC154BDA6814
:102AE00012090F231340174AD35CD840164B1860C5
:102AF000164B1868FFF798F870BD0D4A136801214E
:102B00008B4323431360FFF7D7F80600084B1A687E
:102B100001231340A342CAD0FFF7CEF8801B064B17
:102B20009842F3D90320E7E70120E5E70120E3E736
:102B3000002002400010024088130000FFF8FFFF51
:102B4000FFC7FFFFE42F0008040000200C00002056
:102B50001348854613480168090E134A914205D16E
:102B6000124813490160134813490160134814497E
:102B7000144A002302E0D458C4500433C4188C42D1
:102B8000F9D3114A114C002301E013600432A24230
:102B9000FBD3FFF747F800F01DF8FEF7A7FFFEE7AD
:102BA00000200020040000001F000000341002403C
:102BB00001000000000001400000000000000020B3
:102BC0003C040020183000083C040020D8040020F9
:102BD000FEE7000070B50C4D0C4E761BB61005D00C
:102BE000002408CD01349847A642FAD100F0EAF853
:102BF000074D084E761BB61005D0002408CD0134D1
:102C00009847A642FAD170BD0C3000080C3000087D
:102C10000C30000814300008F0B50500830749D0D7
:102C2000541E002A45D003000326CAB202E0013533
:102C3000013C3ED301332A703342F8D1032C30D902
:102C4000FF220A40150215432A0415430F2C34D9DC
:102C50002700103F3F093E01B4461E001A001036FF
:102C60006644156055609560D5601032B242F8D167
:102C700001373F01DB190F270C22274022403C007F
:102C8000002A0ED03E1FB608B400A4461A001C1D30
:102C9000644420C2A242FCD103240136B6009B1931
:102CA0003C40002C05D0C9B21C19197001339C425C
:102CB000FBD1F0BD03001400C0E72700E2E7C046E7
:102CC000034B10B5002B02D0024800F005F810BDF0
:102CD00000000000E92C000810B5010000230022CC
:102CE000002000F019F810BD70B5074D074C641BAB
:102CF000A41005D0013CA300EB589847002CF9D153
:102D000000F066F870BDC0461430000818300008A6
:102D10007047C0467047C046F0B5D6464F46464657
:102D2000C0B5264F82B0060038689246984689465C
:102D3000FFF7EEFF224B1B680193A423019A5B006F
:102D4000D558002D2ED06C681F2C30DC002E0FD1F2
:102D5000631C6B604B460234A40038686351FFF774
:102D6000D9FF002002B0E0BCBA46B146A846F0BD8B
:102D7000882251462800A300EB189950873AA240B8
:102D80008930FF30016811430160842140464900C9
:102D90005850022EDCD12B008D33FF3319680A43C3
:102DA0001A60D5E715004D35FF35D550CBE73868AB
:102DB000FFF7B0FF01204042D4E7C04638040020AE
:102DC00000300008F8B5C046F8BC08BC9E46704705
:0C2DD000F8B5C046F8BC08BC9E46704731
:102DDC0076050008340500083405000830050008A5
:102DEC003A0500083A0500084A08000830050008B2
:102DFC003A0500084A0800083A05000830050008A2
:102E0C00DE070008DE070008DE070008B40800082B
:102E1C000E1B0008161B00081E1B0008261B0008B2
:102E2C002E1B0008361B00083E1B0008461B000822
:102E3C00816E767A810000007F7D007F7F0000002C
:102E4C003D5E6E7679000000BD7E767689000000CE
:102E5C00CFD3DD00DF000000B07676768E00000068
:102E6C00817676768D000000FCFE0EF2FC000000F0
:102E7C008976767689000000B97676768100000036
:102E8C0001F6F6F601000000007676768900000067
:102E9C00817E7E7EBD000000007E7EBDC3000000F2
:102EAC00007676767E00000000F6F6F6FE00000056
:102EBC00817E76768500000000F7F7F700000000B1
:102ECC00FF7E007EFF000000FE7E7E80FE00000084
:102EDC0000F7EBDD3E000000007F7F7F7F000000ED
:102EEC0000FEC0FE0100000000FE817F000000001B
:102EFC00817E7E7E8100000000F6F6F6F90000006F
:102F0C00817E5EBE4100000000F6E6D6390000006E
:102F1C00B97676768D000000FEFE00FEFE00000005
:102F2C00807F7F7F80000000E09F7F9FE00000009B
:102F3C00807F877F800000001CEBF7EB1C000000FB
:102F4C00FCF30FF3FC0000003E56666A7C000000A8
:102F5C00EFD7BB7DFF000000FF7DBBD7EF0000006B
:102F6C00FFFF40FFFF000000FDFE4EF6F9000000E1
:102F7C00FDFE4EF6F9000000F7F7F7F7F70000003A
:102F8C007F7F7F7F7F000000F7F7C1F7F70000001D
:102F9C00DBDBDBDBDB000000FFFFDBFFFF00000007
:102FAC008F714EBE4D000000DB00DB00DB0000002B
:102FBC0081665A46E1000000C7838383C700000086
:102FCC00BBDFEFF7BB000000DBB500ADDB000000A2
:102FDC00FFFFFFFFFF0000000000000000000000EA
:102FEC000102030406070809030406080C10182044
:082FFC0030000000100000206D
:08300400F4D2FF7F010000007F
:08300C00C12C0008E9000008D6
:04301400C1000008EF
:103018000101000000002000010000000400000081
:1030280000000000FC02002064030020CC03002004
:103038000000000000000000000000000000000088
:103048000000000000000000000000000000000078
:103058000000000000000000000000000000000068
:103068000000000000000000000000000000000058
:103078000000000000000000000000000000000048
:103088000000000000000000000000000000000038
:103098000000000000000000000000000000000028
:1030A8000000000000000000000000000000000018
:1030B8000000000000000000000000000000000008
:1030C80000000000000000000100000000000000F7
:1030D8000E33CDAB34126DE6ECDE05000B000000BC
:1030E80000000000000000000000000000000000D8
:1030F80000000000000000000000000000000000C8
:1031080000000000000000000000000000000000B7
:1031180000000000000000000000000000000000A7
:0C3448000000000000000000D404002080
:0400000508002B5173
:00000001FF
